:020000040000fa
:080000000002040000000000f2
:020000040000fa
:04000800920300005f
:020000040000fa
:04000c00920300005b
:020000040000fa
:040010009203000057
:020000040000fa
:040014009203000053
:020000040000fa
:04001800920300004f
:020000040000fa
:04001c00920300004b
:020000040000fa
:040020009203000047
:020000040000fa
:040024009203000043
:020000040000fa
:04002800920300003f
:020000040000fa
:04002c00920300003b
:020000040000fa
:040030009203000037
:020000040000fa
:04003400260300009f
:020000040000fa
:04003800920300002f
:020000040000fa
:04003c00920300002b
:020000040000fa
:040040009203000027
:020000040000fa
:040044009203000023
:020000040000fa
:040048001e03000093
:020000040000fa
:04004c00920300001b
:020000040000fa
:040050009203000017
:020000040000fa
:040054006003000045
:020000040000fa
:04005800920300000f
:020000040000fa
:04005c00fa020000a4
:020000040000fa
:040060009203000007
:020000040000fa
:040064009203000003
:020000040000fa
:0400680092030000ff
:020000040000fa
:04006c0092030000fb
:020000040000fa
:0400700092030000f7
:020000040000fa
:0400740092030000f3
:020000040000fa
:0400780092030000ef
:020000040000fa
:04007c0092030000eb
:020000040000fa
:0400800092030000e7
:020000040000fa
:0400840092030000e3
:020000040000fa
:0400880092030000df
:020000040000fa
:04008c0092030000db
:020000040000fa
:0400900092030000d7
:020000040000fa
:04009400480300001d
:020000040000fa
:0400980092030000cf
:020000040000fa
:04009c0092030000cb
:020000040000fa
:0400a00092030000c7
:020000040000fa
:0400a40092030000c3
:020000040000fa
:0400a80092030000bf
:020000040000fa
:0400ac0092030000bb
:020000040000fa
:0400b00092030000b7
:020000040000fa
:0400b40092030000b3
:020000040000fa
:0400b80092030000af
:020000040000fa
:0400bc0092030000ab
:020000040000fa
:0400c00092030000a7
:020000040000fa
:0400c40092030000a3
:020000040000fa
:0400c800920300009f
:020000040000fa
:0400cc00920300009b
:020000040000fa
:0400d0009203000097
:020000040000fa
:0400d4009203000093
:020000040000fa
:0400d800920300008f
:020000040000fa
:0400dc00920300008b
:020000040000fa
:0400e0009203000087
:020000040000fa
:0400e4009203000083
:020000040000fa
:0400e800920300007f
:020000040000fa
:0400ec00920300007b
:020000040000fa
:0400f0009203000077
:020000040000fa
:0400f4009203000073
:020000040000fa
:0400f800920300006f
:020000040000fa
:0400fc00920300006b
:020000040000fa
:040100009203000066
:020000040000fa
:040104009203000062
:020000040000fa
:04010800920300005e
:020000040000fa
:04010c00920300005a
:020000040000fa
:040110009203000056
:020000040000fa
:040114009203000052
:020000040000fa
:04011800920300004e
:020000040000fa
:04011c00920300004a
:020000040000fa
:040120009203000046
:020000040000fa
:040124009203000042
:020000040000fa
:04012800920300003e
:020000040000fa
:04012c00920300003a
:020000040000fa
:040130009203000036
:020000040000fa
:040134009203000032
:020000040000fa
:04013800920300002e
:020000040000fa
:04013c00920300002a
:020000040000fa
:040140009203000026
:020000040000fa
:040144009203000022
:020000040000fa
:04014800920300001e
:020000040000fa
:04014c00920300001a
:020000040000fa
:040150009203000016
:020000040000fa
:040154009203000012
:020000040000fa
:04015800920300000e
:020000040000fa
:04015c00920300000a
:020000040000fa
:040160009203000006
:020000040000fa
:040164009203000002
:020000040000fa
:0401680092030000fe
:020000040000fa
:04016c0092030000fa
:020000040000fa
:0401700092030000f6
:020000040000fa
:0401740092030000f2
:020000040000fa
:0401780092030000ee
:020000040000fa
:04017c0092030000ea
:020000040000fa
:0401800092030000e6
:020000040000fa
:0401840092030000e2
:020000040000fa
:0401880092030000de
:020000040000fa
:04018c0092030000da
:020000040000fa
:0401900092030000d6
:020000040000fa
:0401940092030000d2
:020000040000fa
:0401980092030000ce
:020000040000fa
:04019c0092030000ca
:020000040000fa
:0401a00092030000c6
:020000040000fa
:0401a40092030000c2
:020000040000fa
:0401a80092030000be
:020000040000fa
:0401ac0092030000ba
:020000040000fa
:0401b00092030000b6
:020000040000fa
:0401b40092030000b2
:020000040000fa
:0401b80092030000ae
:020000040000fa
:0401bc0092030000aa
:020000040000fa
:0401c00092030000a6
:020000040000fa
:0401c40092030000a2
:020000040000fa
:0401c800920300009e
:020000040000fa
:0401cc00920300009a
:020000040000fa
:0401d0009203000096
:020000040000fa
:0401d4009203000092
:020000040000fa
:0401d800920300008e
:020000040000fa
:0401dc00920300008a
:020000040000fa
:0401e0009203000086
:020000040000fa
:0401e4009203000082
:020000040000fa
:0401e800920300007e
:020000040000fa
:0401ec00920300007a
:020000040000fa
:0401f0009203000076
:020000040000fa
:0401f4009203000072
:020000040000fa
:0401f800920300006e
:020000040000fa
:0401fc00920300006a
:020000040000fa
:040200009203000065
:020000040000fa
:040204009203000061
:020000040000fa
:04020800920300005d
:020000040000fa
:04020c009203000059
:020000040000fa
:040210009203000055
:020000040000fa
:040214009203000051
:020000040000fa
:04021800920300004d
:020000040000fa
:04021c009203000049
:020000040000fa
:040220009203000045
:020000040000fa
:040224009203000041
:020000040000fa
:04022800920300003d
:020000040000fa
:04022c009203000039
:020000040000fa
:040230009203000035
:020000040000fa
:040234009203000031
:020000040000fa
:04023800920300002d
:020000040000fa
:04023c009203000029
:020000040000fa
:040240009203000025
:020000040000fa
:040244009203000021
:020000040000fa
:04024800920300001d
:020000040000fa
:04024c009203000019
:020000040000fa
:040250009203000015
:020000040000fa
:040254009203000011
:020000040000fa
:04025800920300000d
:020000040000fa
:04025c009203000009
:020000040000fa
:040260009203000005
:020000040000fa
:040264009203000001
:020000040000fa
:0402680092030000fd
:020000040000fa
:04026c0092030000f9
:020000040000fa
:0402700092030000f5
:020000040000fa
:0402740092030000f1
:020000040000fa
:0402780092030000ed
:020000040000fa
:04027c0092030000e9
:020000040000fa
:0402800092030000e5
:020000040000fa
:100400006f0421000eff27000e018800000000008d
:10041000000020000000e000020032000001200087
:100420002002880014000700c00007000000e00060
:1004300003003a00a005210001002000020037005f
:100440000000200001002000810f70000100320038
:100450000f000700000020000000e0000200320052
:100460000000020000000000b610020000000000c2
:100470000040da000000fe00800020000000e000e4
:1004800002003200002020009001880000000600d9
:10049000a1028800800478000000eb001f003700f4
:1004a000e284440054a0b4009905ba00e2844400f8
:1004b00054a0b4009906ba00e284440054a0b400e9
:1004c0000006eb00476fde00fd07b200ae018800ba
:1004d000636ce10003003a000ad801000000eb0061
:1004e0000e003700606ce10008003a00004deb00a0
:1004f0000a05e800020039003420ec000af0a000f0
:100500008b05e900f9ff3e00040037006168e10057
:10051000010032000086eb000b00070019c7ba008b
:100520000e04e0001905ba0003003a000a00e000da
:10053000dbff3a0000000600fe07b200ae028800b2
:100540008a047800f5ff37000cd0a300e20f4d00bd
:100550001c00390089027800354dba000a05e80010
:10056000020039003420ec000af0a0008b05e900fd
:100570000f003200254dba000a05e80002003900dc
:100580003420ec000af0a0008b05e90008003200de
:100590000c00e0000600320015cdba000a05e800a4
:1005a000020039003420ec000af0a0008b05e900bd
:1005b0008984e80054a0b4000b00e000e2ff3a0098
:1005c000000006009902ba00055d78008b05e9007d
:1005d000f7ff3200c82ade00055d78008b05e900d0
:1005e000f3ff32000c00e000f1ff320019ddba0029
:1005f000eeff3700801f78000000fa0001a8a90074
:100600000018800020828800101880001082880066
:10061000201880000082880030188000f081880057
:1006200040188000e081880010c0b3000bf0b700d4
:100630000080fa004f007800004006000000fa0039
:100640000108a9000080fa00004006003600f8000a
:10065000809fbe00829fbe00849fbe00869fbe001a
:100660000000fa000068a900af0407002206070096
:10067000e50207000080fa004f03be004f02be00f3
:100680004f01be004f00be003600f90000400600da
:10069000809fbe000000fa000368a900008080006f
:1006a0001180800061004000e080480000808800e8
:1006b000118088000080fa004f00be000040060054
:1006c000801f78000000fa000168a9001011800066
:1006d000640060000000e000010032002242a90036
:1006e00010118000620060000000e0000500320090
:1006f0002222a90004003700301180002011880058
:10070000010037000000000010118000610060004f
:100710000000e000f8ff3a000080fa004f00780087
:10072000004006000040da000000fe000000050066
:1007300003f0a200889fbe008a9fbe008c1f780035
:10074000160107001d0133006450e1004f00320024
:100750006420e1005200320003826c0007003b007d
:100760000905d0000306d000820f54000c065d007e
:100770000200390002003200890178000306780087
:100780008582550004003d000003fd008103fd004b
:100790008502ea008b854200840f720002003b0054
:1007a00060001000e08018006011b8000005eb0048
:1007b0007a28e1000a00390006007800c75ddd00f4
:1007c000f707b200878075002d0037008281710025
:1007d0000a017800610560008180d1000080d300ab
:1007e0008502e900f9ff3b000604400087844800c9
:1007f00002003b0060041400e0841c000988a30090
:10080000070032008a8171008281710061016400f9
:100810008904d1000884d3008b05e8001700370055
:100820000978a30013003a000b00e0001300340025
:100830008b05e9000804440089844c000a447400d4
:100840000978a3000d003a000b00e0000700340017
:100850008b05e9000804440089844c0001003a003b
:100860000b0020000978a300f7ff32000001eb0025
:1008700002003700828171000a0178008c000700b5
:100880000cf0a70001f0a000d50037006420e100c3
:1008900002003a00838f6c00d50033000801be00cf
:1008a0000200be00ce003700889fbe008a9fbe00b7
:1008b0008c1f7800b9000700c000330003866c006d
:1008c0006450e1002e0032006420e1003300320069
:1008d0006150e1002f0032006120e1003100320060
:1008e00085855500eb07b0000900200008042000b2
:1008f000050037000804440089844c000a003100d8
:100900000603430087834b000001530081815b0095
:10091000f8ff33000203be000800a00008044400f2
:1009200089844c00f6ff3900c639dd00830173006d
:1009300001003200130020008904d1000884d30094
:100940000998a300050032000800a7000300a000da
:100950008904d1000884d3008b05e8008904d10004
:100960000884d3000001eb000281d2005000070090
:1009700001f0a1000cf0a70001f0a00098003700e2
:100980006420e1009a0032000801be000200be00af
:10099000f7ff37006120e100950032006000b800e9
:1009a000f3ff37000000200001f82700f0ff3700b8
:1009b00014002000c5003700f4ff2f00c3003700eb
:1009c0000001be00600007000470a70003f0a10052
:1009d0006509b100160032000d0035006828e100fd
:1009e00006003500f0ff2f00f1ff27000300e000b4
:1009f00013003b000100280000000500000040003b
:100a0000818048008502e900fcff3a0008003700b9
:100a1000f88f420002003c008000eb00000005005f
:100a20008100d1000080d3008502e800fcff3a007d
:100a30000300e00002003b0060001000e0801800ae
:100a4000000006000001be003f0007000470a70080
:100a500003f0a10003f8a30013003a006509b100f8
:100a600010003200090035006928e100020035005d
:100a700001002800000005000000400081804800bf
:100a80008502e900fcff3a0000000600f88f4200f2
:100a9000050035008100d1000080d3008502e80008
:100aa000fcff3a00000006008000eb00000005009b
:100ab00081002000618055000b003d000b002000ec
:100ac00061fe2f000100e1001d00340082817100f1
:100ad000610164008904d1000884d3000000e800ab
:100ae000faff3a007100200061006400030070000a
:100af000020060000900320061044400e0844c0000
:100b00000988a500050032008b05e8006808e100af
:100b100002003a008904d1000884d300f20f2000bb
:100b20000258e10005003d00c75ddd00f907b20095
:100b30008980750008007800000006000bf8270087
:100b40008b00780000000500c70ade00f107b20044
:100b5000f50fb20008003200e1cf4200020032007f
:100b60000170a00024000500810f70000100320018
:100b70000408050044000500810f700002003a00df
:100b8000140005008502e9000000400081c0480013
:100b9000fcff3b000170a000240005000004be0023
:100ba000e9ff07000003be000405be000200be000e
:100bb000e5ff0700844f7500000006000200be003c
:100bc0006450e100050036006420e10002003600b8
:100bd0000968a30001003a000800be000160a000ff
:100be0004f0678004f05be004f04be00000006000f
:100bf000f0ff2f00f1ff2700f9ff3700889fbe00ac
:100c00008a9fbe008c1f7800e4ff0700ebff3300d3
:100c100003866c006450e100240032006420e1008f
:100c2000270032006150e100220032006120e10023
:100c3000210032008b854200eb07b1000134b8007f
:100c4000003ab8000804420089844a00013ab8001a
:100c50000030b8008880400009014a0004003300d9
:100c60000000400081804800020149008b05e90036
:100c7000c909dd008301700001003200130020006b
:100c8000c814de004814dd004709de001200b2007f
:100c9000c808de000884700085ff070001f0a1008d
:100ca0000cf0a70001f0a000cdff37006120e100ab
:100cb000cfff32000801be000200be00f7ff370080
:100cc0006150e100fcff3a00c9ff3700889fbe0079
:100cd0008a9fbe00841f7800b0ff07004f00780095
:100ce00011003300f0ff2f00838f6c0006003b00e3
:100cf000040565000a00a7000800370009f0a600f7
:100d00001000200008003700820f5400838f5c0021
:100d1000030039001000200001003e000000200008
:100d200009f0a7000000ea004f05be004f04be0016
:080d30000000e00000000600d5
:020000040000fa
:100d3800426f00006e6a00006f75000072000000cc
:020000040000fa
:100d48000200fa00881f78000040eb00004f78008e
:100d5800608180007181800018c0b300020020000b
:100d6800831c240010ff07000000e000010035008c
:100d78000044eb000804e0000300320030c0b30078
:100d8800004f7800f2003700a0818000b181800018
:100d980018c0b30002002000031a240004ff070053
:100da8000000e00001003c000044eb000804e00003
:100db8002f003200408180005181800018c0b300ac
:100dc80002002000c3202400f9fe07000000e00014
:100dd80001003c000044eb000804e000240032005d
:100de800608180007181800018c0b300020020007b
:100df80083242400eefe07000000e00001003c0010
:100e08000044eb000804e0001900320080818000f3
:100e18009181800018c0b30002002000c320240084
:100e2800e3fe07000000e00001003c000044eb0086
:100e38000804e0000e003200c0818000d1818000eb
:100e480018c0b30002002000031a2400d8fe0700cf
:100e58000000e00001003c000044eb000804e00052
:100e68000300320060c0b300004f7800b8003700bc
:100e7800a0818000b181800018c0b300020020006a
:100e880003122400cafe07000000e00001003c0035
:100e98000044eb000804e0003a0032004081800082
:100ea8005181800018c0b30002002000831c240078
:100eb800bffe07000000e00001003c000044eb001a
:100ec8000804e0002f0032006081800071818000fa
:100ed80018c0b30002002000031a2400b4fe070063
:100ee8000000e00001003c000044eb000804e000c2
:100ef80024003200608180007181800018c0b30036
:100f08000200200083242400a7fe07000000e00060
:100f1800010035000044eb000804e000190032002d
:100f2800808180009181800018c0b30002002000f9
:100f3800831c24009efe07000000e00001003c0026
:100f48000044eb000804e0000e003200c08180007d
:100f5800d181800018c0b3000200200003122400d1
:100f680093fe07000000e00001003c000044eb0095
:100f78000804e000030032000040eb00004f780056
:100f880073003700a0818000b181800018c0b300d1
:100f9800020020000322240083fe07000000e00076
:100fa800010035000044eb000804e0002f00320087
:100fb800408180005181800018c0b30002002000e9
:100fc800c320240078fe07000000e000010035007f
:100fd8000044eb000804e000240032006081800037
:100fe8007181800018c0b30002002000031a240099
:100ff8006ffe07000000e00001003c000044eb0029
:101008000804e0001900320080818000918180008e
:1010180018c0b30002002000031f240064fe07006c
:101028000000e00001003c000044eb000804e00080
:101038000e003200c0818000d181800018c0b3004a
:1010480002002000c320240059fe07000000e00031
:1010580001003c000044eb000804e00003003200fb
:1010680020c0b300004f780039003700a08180000d
:10107800b181800018c0b30002002000c320240002
:101088004bfe07000000e00001003c000044eb00bc
:101098000804e0002e003200408180005181800069
:1010a80018c0b30002002000031f240040fe070000
:1010b8000000e00001003c000044eb000804e000f0
:1010c80023003200608180007181800018c0b30065
:1010d80002002000031a240035fe07000000e0008b
:1010e80001003c000044eb000804e0001800320056
:1010f800808180009181800018c0b3000200200028
:10110800c320240028fe07000000e000010035008d
:101118000044eb000804e0000d003200c0818000ac
:10112800d181800018c0b3000200200003222400ef
:101138001dfe07000000e000010035000044eb0040
:101148000804e0000200320010c0b300004f78002d
:101158001e4078000004e00003003a0020c0b300fd
:101168000cf0b7001a0037001e407800e64f500018
:1011780003003a0000c1b3000cf0b70014003700b8
:101188001e407800e24f500003003a0040c0b30010
:101198000cf0b7000e0037001e407800e14f5000f9
:1011a80003003a0060c0b3000cf0b7000800370035
:1011b8001e407800e34f500003003a0080c0b3009f
:1011c8000cf0b70002003700a0c0b3000cf0b70065
:1011d8000cd0bf008080fb000dd0bf000080fb005a
:1011e8000000e900808f5000020032000cd0bf00e0
:1011f8000df0b7004f0478000080fa0000000600e8
:101208000000fa00117280000000220000806000d7
:101218000000e0008100320002808000138080001e
:10122800007d200001002000800f5100818f5900af
:10123800850036000dd0bf000080fb00cf80de00a7
:101248001201200003002000820f5000838f5800f5
:1012580070003e000006010011003700180037003a
:101268001a00370024003700420037004c003700ce
:10127800330037003d0037004b003700550037007a
:101288005600370060003700620037006100370001
:10129800600037005f00370019003700260037006c
:1012a80012c0b3006000b8003e0207000041eb0026
:1012b8006000b8003b02070010c0b3000df0b70093
:1012c80020c0b3000df0b7006000370012c0b300b3
:1012d8000000200001102400320207000041eb004a
:1012e80000002000011024002e02070030c0b300c7
:1012f8000df0b7005500370091fe07005300370086
:1013080012c0b300000020000122240025020700bb
:101318000041eb0000002000012224002102070008
:1013280064cea80064eea800254ea80010c1b30042
:101338000df0b7004500370081fe07004300370075
:1013480012c0b30000002000011a24001502070093
:101358000041eb0000002000010a2c0011020700e8
:1013680070c0b3000df0b7003800370074fe0700f6
:101378003600370012c0b30000002000010a2c001c
:10138800080207000041eb0000002000011a2400b9
:101398000402070050c0b3000df0b7002b0037005f
:1013a80067fe07002900370012c0b30000002000c4
:1013b80001172c00fb0107000041eb000000200092
:1013c80001172400f701070090c0b3000df0b70023
:1013d8001e0037005afe07001c00370012c0b30079
:1013e8000000200001172400ee0107000041eb0077
:1013f8000000200001172c00ea010700b0c0b3006c
:101408000df0b700110037004dfe07000000000086
:101418000e0037000d70ef000c0037000030ef00b1
:101428000230ef0012c0b3006000b800dd01070011
:101438000041eb006000b800da01070010c0b300fb
:101448000df0b70001003700000000000080fa002e
:10145800000006000000fa0013e1a90011e1a9004c
:101468001061a8001021a90081088000f0fc2f005d
:1014780000806000800888000a21ef000621ef0044
:10148800404c20007008880000402b00600888004d
:101498002142800080ff2f00008060000000a00033
:1014a800204288000108a9002108a80011e1a8002d
:1014b8000080fa00000006000000fa0005e1a9001b
:1014c8000421a9000068a9002068a80005e1a80077
:1014d8000000200081342400020007000080fa0088
:1014e800000006000400fa00881f7800008fbe0084
:1014f80021088000f0fc2f00008060002008880090
:101508001e0178009e0190000068290081c1240016
:10151800e3fc070018c0b30002f02f00f3772400a3
:1015280023fd07000000e00001003c000044eb0040
:101538000804e0005400320021088000f0fc2f006d
:10154800008060000040a000200888001e0178008c
:101558009e0190000068290081c12400d0fc07008a
:101568000200200003102400cdfc070018c0b300bf
:1015780002f02f00f37724000dfd07000000e000c3
:1015880001003c000044eb000804e0003200320097
:1015980021088000f0fc2f00008060000050a000af
:1015a800200888001e0178009e019000006829002c
:1015b80081c12400bafc070002002000032824008f
:1015c800b7fc070018c0b30002f02f00f37724001f
:1015d800f7fc07000000e00001003c000044eb00bd
:1015e8000804e000100032002108800000032000f9
:1015f80001007000200888001e0178009e019000fc
:101608000068290081c12400a5fc07000200200011
:1016180003382400a2fc0700e7fc0700000078005c
:1016280010088800200037001e0178009e019000f5
:101638000068290081c1240099fc070002002000ed
:101648000328240096fc0700dbfc07000000780054
:1016580010088800140037001e0178009e019000d1
:101668000068290081c124008dfc070002002000c9
:10167800031024008afc0700cffc07000000780054
:1016880010088800080037001e0178009e019000ad
:101698000068290081c1240081fc0700c6fc0700fe
:1016a80000007800100888004f0478000080fa00d5
:1016b800000006000000fa001fe1a9001e21a90091
:1016c8000368a9002368a8001fe1a8000000200003
:1016d800a1472400020007000080fa00000006006d
:1016e8000400fa00881f7800008fbe00f10880000f
:1016f800f0fc2f0000806000f00888001e017800d0
:101708009e0190000068290081c1240064fc070044
:1017180018c0b30002f02f00f3772400a4fc0700e0
:101728000000e00001003c000044eb000804e00079
:1017380054003200f1088000f0fc2f0000806000a7
:101748000040a000f00888001e0178009e0190006b
:101758000068290081c1240051fc07000200200014
:10176800031024004efc070018c0b30002f02f003d
:10177800f37724008efc07000000e00001003c0025
:101788000044eb000804e00032003200f108800059
:10179800f0fc2f00008060000050a000f0088800d6
:1017a8001e0178009e0190000068290081c1240074
:1017b8003bfc0700020020000328240038fc070037
:1017c80018c0b30002f02f00f377240078fc07005c
:1017d8000000e00001003c000044eb000804e000c9
:1017e80010003200f10880000003200001007000a2
:1017f800f00888001e0178009e019000006829000a
:1018080081c1240026fc07000200200003382400c0
:1018180023fc070068fc070000007800d008880057
:10182800200037001e0178009e0190000068290002
:1018380081c124001afc07000200200003282400ac
:1018480017fc07005cfc070000007800d00888003f
:10185800140037001e0178009e01900000682900de
:1018680081c124000efc07000200200003102400a0
:101878000bfc070050fc070000007800d008880027
:10188800080037001e0178009e01900000682900ba
:1018980081c1240002fc070047fc07000000780013
:1018a800d00888004f0478000080fa000000060085
:1018b8000000fa001160800080ff2f0000806000a7
:1018c8001060880000fa20002060880023aca8007f
:1018d800238ca80011618000f03f2f000080600079
:1018e80000a0a0001061880030002000206188005e
:1018f800c3aca800c38ca80011668000f03f2f007d
:101908000080600000a0a000106688003000200061
:101918002066880001eca8000080fa00000006009c
:101928000000fa00889fbe000481800015818000b5
:10193800e0808000f180800018c0b3000001be0084
:101948000400be0018fc07000000e000010035009c
:101958000044eb000804e0000d003200e88080003d
:10196800f98080000481800015818000308080002b
:10197800418080000001be000400be006bfb070030
:101988000801be00c7000700008188001181880097
:101998000481800015818000e0808000f180800053
:1019a80018c0b3000001be000400be0000fc070020
:1019b8000000e00001003c000044eb000804e000e7
:1019c8000d003200e8808000f980800004818000ea
:1019d8001581800030808000418080000001be00b9
:1019e8000400be0050fb07000801be009500070078
:1019f80000818800118188000081800011818000a9
:101a080018c0b3006011b800e9fb07000000e0004f
:101a180001003c000044eb000804e0000400320030
:101a2800c3cca90024eea800c3eca800030037002b
:101a3800c3eca90024cea800c3cca8000081800074
:101a480011818000690007000200200003222400a1
:101a580068fc0700f9fb0700000078003066880082
:101a6800c4808000d5808000a0808000b180800084
:101a780018c0b3000001be000400be00cafb070086
:101a88000000e000010035000044eb000804e0001d
:101a98000d003200a8808000b9808000c4808000da
:101aa800d580800030808000418080000001be0029
:101ab8000400be001dfb07000801be0079000700f6
:101ac800c0808800d1808800c4808000d5808000d4
:101ad800a0808000b180800018c0b3000001be0063
:101ae8000400be00b2fb07000000e00001003c005b
:101af8000044eb000804e0000d003200a8808000dc
:101b0800b9808000c4808000d5808000308080004b
:101b1800418080000001be000400be0002fb0700f7
:101b28000801be0047000700c0808800d1808800f7
:101b3800c0808000d180800018c0b3006011b80058
:101b48009bfb07000000e00001003c000044eb00a4
:101b58000804e0000400320023cca90015eea80018
:101b680023eca8000300370023eca90015cea80039
:101b780023cca800c0808000d18080001b00070013
:101b880002002000032224001afc0700abfb070018
:101b980000007800306188004f04be000080fa0021
:101ba800000006000600fa00008fbe0042479800b9
:101bb8004e4090000004e00006003a001e00780045
:101bc8009e00900001f0a200a0808800b1808800eb
:101bd800040037001e0178009e019000e280880012
:101be800f38088000080fa00000006000400fa0074
:101bf800881f7800008fbe0018c0b3006011b800bd
:101c08001e0078009e00900069fb07000000e000bd
:101c180001003d000044eb000804e000030032002e
:101c28001e0078009e009000030037001e00780018
:101c38009e00900001f0a2004f0478000080fa0096
:101c4800000006000800fa00881f7800008fbe0018
:101c5800220798003307980018c0b3002e0190009f
:101c6800be0190001e0078009e00900050fb070007
:101c78000000e00001003c000044eb000804e00024
:101c8800030032001e0078009e009000020037001a
:101c98002e009000be0090004f0478000080fa00eb
:101ca800000006000800fa00881f7800008fbe00b8
:101cb800220798003307980018c0b3002e0190003f
:101cc800be0190001e0078009e00900036fb0700c1
:101cd8000000e000010035000044eb000804e000cb
:101ce800030032001e0078009e00900002003700ba
:101cf8002e009000be0090004f0478000080fa008b
:101d0800000006000c00fa00881f7800008fbe0053
:101d18002207980033079800440798005507980051
:101d280018c0b3004e019000de0190001e0078003c
:101d38009e0090001efb07000000e00001003c0030
:101d48000044eb000804e000040032004e0190005b
:101d5800de019000028fbe000e00370018c0b300ed
:101d68002e019000be0190001e0078009e00900099
:101d78000dfb07000000e000010035000044eb0007
:101d88000804e000030032002e019000be0190001c
:101d9800028fbe001e0078009e0090004f0478005d
:101da8000080fa00000006000400fa00008fbe0060
:101db800b2fd2000930424001e0078009e009000cd
:101dc800b7fa0700020020004333240089fb07000c
:101dd8000080fa00000006000400fa00008fbe0030
:101de800b2fd2000930424001e0078009e0090009d
:101df80080fb07000200200043332400a8fa0700f4
:101e08000080fa00000006000000fa0021e3a900a3
:101e18002143a80001198000f0cf2f000080600046
:101e2800001988002043a90001198000000e200035
:101e3800010070000019880011198000f0ff2100ce
:101e480000806000101988002343a8001119800041
:101e5800f0cf2f0000806000101988001119800051
:101e680030f82f00008060000040a00010198800a2
:101e78002203a9002223a90025e3a900f0c0b3008a
:101e880024e3b70021198000f00f2e008080600045
:101e980000f0200001007000201988003303a90019
:101ea8001e2ea8002e0ea8002f6ea8006f2ea800c8
:101eb8004feea8003063a80030c3a8003163a80023
:101ec8002e03a80031e3a8004119800000fc2f0070
:101ed800008060004019880028e3a90001a8a90033
:101ee80021a8a80021e3a8000080fa00000006004d
:101ef8000000fa002023a8000080fa000000060075
:101f08000000fa00c00321000080fa00000006006b
:101f18000000fa000bd0bf000080fa0000000600a5
:101f28000000fa0010c0b3000bf0b7000080fa0000
:101f3800000006000000fa002002a900011180003c
:101f480090ff2f00008060000011880020a2a900e7
:101f58002062a800500520004011880023a2a90093
:101f680023e2a9000188a9002188a9001111800095
:101f7800f0f32f0000806000101188000168a900ac
:101f88002168a90021e2a8002342a8000080fa00e5
:101f9800000006000600fa00204798002107980074
:101fa8000040eb00004f78000040eb00004f780045
:101fb8000d003700000000001111800000202000f3
:101fc800008060000000e000fbff3a002e40900017
:101fd8000080fb00201188002e4090000040e8009f
:101fe800204798001e4fe8009e80fb002e009000be
:101ff800808f5000efff35000080fa0000000600d7
:102008000000fa00f0032000303a8800213a8000ee
:10201800f0f32f0000806000203a8800213a800009
:1020280000fe2f00008060000000a000203a880019
:102038001200200080072000a1092000337420002e
:10204800804978008149780082497800103a8000f8
:10205800000178000200a000600420007105200043
:1020680023742000804978008149780082497800eb
:1020780000000000113a8000000027008080600006
:1020880000002100808f5000faff3a000000000095
:10209800113a800000022000008060000000e0008b
:0c20a800fbff32000080fa000000060080
:020000040000fa
:1020b4003c1000000a000000800000000a1000002c
:1020c4000200000080000000061000000400000070
:1020d40082000000000020004100000012100000f7
:1020e4002a000000800000000c1000000200000024
:1020f40080000000001000000600000080000000c6
:102104000e10000002000000820000001e0000000b
:102114001010000002000000800000000000000019
:020000040000fa
:102124000000fa000e2eef001e2eef002e2eef0000
:102134003e2eef004e2eef005e2eef006e2eef00cf
:10214400214ea90060cea90060eea90011cea9001d
:1021540011eea90020cea90020eea90041aea800ee
:102164000080fa00000006000000fa00a5ff070046
:10217400ebff0700d1fc070024ff0700b6fc0700b3
:102184004dfd0700cbfd0700c06928007100200049
:1021940081ff070000a02500212620000100070080
:0421a400f9ff370008
:020000040000fa
:1021a800f03fb1000180b10006003500ee030900e0
:1021b80000000000403fb1000180b100fbff3d007e
:1021c8001000b000203fb000020035000080090078
:0821d8000000000000000600f9
:020000040000fa
:02000004000af0
:04afe000cfff00009f
:020000040000fa
:02000004000af0
:04afe400ffff00006b
:020000040000fa
:02000004000af0
:04afe8007fff0000e7
:020000040000fa
:02000004000af0
:04afec005fff000003
:020000040000fa
:02000004000af0
:04aff00038ff000026
:020000040000fa
:02000004000af0
:04aff400ffff00005b
:00000001FF
